{
  "_format": "hh-sol-artifact-1",
  "contractName": "TrustScoreTracker",
  "sourceName": "contracts/TrustScoreTracker.sol",
  "abi": [
    {
      "anonymous": false,
      "inputs": [
        {
          "indexed": true,
          "internalType": "address",
          "name": "user",
          "type": "address"
        },
        {
          "indexed": false,
          "internalType": "uint8",
          "name": "requestType",
          "type": "uint8"
        }
      ],
      "name": "DecryptionRequested",
      "type": "event"
    },
    {
      "anonymous": false,
      "inputs": [
        {
          "indexed": true,
          "internalType": "address",
          "name": "user",
          "type": "address"
        },
        {
          "indexed": false,
          "internalType": "uint32",
          "name": "eventCount",
          "type": "uint32"
        }
      ],
      "name": "TrustEventRecorded",
      "type": "event"
    },
    {
      "anonymous": false,
      "inputs": [
        {
          "indexed": true,
          "internalType": "address",
          "name": "user",
          "type": "address"
        },
        {
          "indexed": false,
          "internalType": "uint8",
          "name": "queryType",
          "type": "uint8"
        }
      ],
      "name": "TrustScoreQueried",
      "type": "event"
    },
    {
      "inputs": [
        {
          "internalType": "address",
          "name": "user",
          "type": "address"
        }
      ],
      "name": "getAverageTrustScore",
      "outputs": [
        {
          "internalType": "euint32",
          "name": "",
          "type": "bytes32"
        }
      ],
      "stateMutability": "view",
      "type": "function"
    },
    {
      "inputs": [
        {
          "internalType": "address",
          "name": "user",
          "type": "address"
        }
      ],
      "name": "getLastActivityTimestamp",
      "outputs": [
        {
          "internalType": "uint32",
          "name": "",
          "type": "uint32"
        }
      ],
      "stateMutability": "view",
      "type": "function"
    },
    {
      "inputs": [
        {
          "internalType": "address",
          "name": "user",
          "type": "address"
        }
      ],
      "name": "getTotalTrustScore",
      "outputs": [
        {
          "internalType": "euint32",
          "name": "",
          "type": "bytes32"
        }
      ],
      "stateMutability": "view",
      "type": "function"
    },
    {
      "inputs": [
        {
          "internalType": "address",
          "name": "user",
          "type": "address"
        }
      ],
      "name": "getTrustEventArrayLength",
      "outputs": [
        {
          "internalType": "uint256",
          "name": "",
          "type": "uint256"
        }
      ],
      "stateMutability": "view",
      "type": "function"
    },
    {
      "inputs": [
        {
          "internalType": "address",
          "name": "user",
          "type": "address"
        }
      ],
      "name": "getTrustEventCount",
      "outputs": [
        {
          "internalType": "uint32",
          "name": "",
          "type": "uint32"
        }
      ],
      "stateMutability": "view",
      "type": "function"
    },
    {
      "inputs": [
        {
          "internalType": "address",
          "name": "user",
          "type": "address"
        },
        {
          "internalType": "uint256",
          "name": "index",
          "type": "uint256"
        }
      ],
      "name": "getTrustScoreByIndex",
      "outputs": [
        {
          "internalType": "euint32",
          "name": "",
          "type": "bytes32"
        }
      ],
      "stateMutability": "view",
      "type": "function"
    },
    {
      "inputs": [
        {
          "internalType": "address",
          "name": "user",
          "type": "address"
        },
        {
          "internalType": "uint256",
          "name": "startIndex",
          "type": "uint256"
        },
        {
          "internalType": "uint256",
          "name": "endIndex",
          "type": "uint256"
        }
      ],
      "name": "getTrustScoreRange",
      "outputs": [
        {
          "internalType": "euint32[]",
          "name": "",
          "type": "bytes32[]"
        }
      ],
      "stateMutability": "view",
      "type": "function"
    },
    {
      "inputs": [],
      "name": "protocolId",
      "outputs": [
        {
          "internalType": "uint256",
          "name": "",
          "type": "uint256"
        }
      ],
      "stateMutability": "pure",
      "type": "function"
    },
    {
      "inputs": [
        {
          "internalType": "externalEuint32",
          "name": "score",
          "type": "bytes32"
        },
        {
          "internalType": "bytes",
          "name": "inputProof",
          "type": "bytes"
        }
      ],
      "name": "recordTrustEvent",
      "outputs": [],
      "stateMutability": "nonpayable",
      "type": "function"
    }
  ],
  "bytecode": "0x608060405234801561000f575f5ffd5b5061018a6100ae604080516080810182525f80825260208201819052918101829052606081019190915250604080516080810182527350157cffd6bbfa2dece204a89ec419c23ef5755d815273cd3ab3bd6bcc0c0bf3e27912a92043e817b1cf69602082015273a02cda4ca3a71d7c46997716f4283aa851c2881291810191909152731364cbbf2cdf5032c47d8226a6f6fbd2afcdacac606082015290565b80517f9e7b61f58c47dc699ac88507c4f5bb9f121c03808c5676a8078fe583e464970080546001600160a01b03199081166001600160a01b039384161790915560208301517f9e7b61f58c47dc699ac88507c4f5bb9f121c03808c5676a8078fe583e46497018054831691841691909117905560408301517f9e7b61f58c47dc699ac88507c4f5bb9f121c03808c5676a8078fe583e46497028054831691841691909117905560608301517f9e7b61f58c47dc699ac88507c4f5bb9f121c03808c5676a8078fe583e46497038054909216921691909117905550565b610fd7806101975f395ff3fe608060405234801561000f575f5ffd5b506004361061009f575f3560e01c80638d934aec11610072578063bbcfde1511610058578063bbcfde1514610167578063da1f12ab1461017a578063e721d4ae14610182575f5ffd5b80638d934aec14610134578063a3c1fa8b14610147575f5ffd5b80630aacc772146100a35780636109413b146100b85780638438bd7e146100de5780638a8423f514610121575b5f5ffd5b6100b66100b1366004610d6b565b610195565b005b6100cb6100c6366004610dfd565b610460565b6040519081526020015b60405180910390f35b61010c6100ec366004610dfd565b6001600160a01b03165f9081526003602052604090205463ffffffff1690565b60405163ffffffff90911681526020016100d5565b61010c61012f366004610dfd565b6104c9565b6100cb610142366004610dfd565b610538565b61015a610155366004610e16565b6105a1565b6040516100d59190610e46565b6100cb610175366004610dfd565b61076e565b6127116100cb565b6100cb610190366004610e88565b6107d7565b806101e75760405162461bcd60e51b815260206004820152601560248201527f50726f6f662063616e6e6f7420626520656d707479000000000000000000000060448201526064015b60405180910390fd5b335f908152600360205260409020546103e863ffffffff9091161061024e5760405162461bcd60e51b815260206004820152601c60248201527f4d6178696d756d207472757374206576656e747320726561636865640000000060448201526064016101de565b5f61028e8484848080601f0160208091040260200160405190810160405280939291908181526020018383808284375f920191909152506108c692505050565b335f908152602081815260408220805460018101825590835291200181905590506102b8816108d3565b506102c381336108e2565b50335f908152600160205260409020546102dd90826108f4565b335f9081526001602081815260408084209490945560039052918120805490919061030f90849063ffffffff16610ec4565b82546101009290920a63ffffffff818102199093169183160217909155335f908152600460209081526040808320805463ffffffff1916429095169490941790935560019052205461036191506108d3565b50335f8181526001602052604090205461037a916108e2565b50335f9081526003602052604090205463ffffffff1680156103e957335f90815260016020526040812054906103b08284610922565b335f90815260026020526040902081905590506103cc816108d3565b50335f818152600260205260409020546103e5916108e2565b5050505b60405163ffffffff8216815233907fd8a40bbc0c38d7d3cc5d9e15d3be0030c44bf9cc19fd17b8363c417484af386f9060200160405180910390a26040515f815233907ffffab431d60109005836506e131e343458ea80be7edf5382d8c70620725e21ca9060200160405180910390a25050505050565b5f6001600160a01b0382166104ae5760405162461bcd60e51b8152602060048201526014602482015273496e76616c69642075736572206164647265737360601b60448201526064016101de565b506001600160a01b03165f9081526002602052604090205490565b5f6001600160a01b0382166105175760405162461bcd60e51b8152602060048201526014602482015273496e76616c69642075736572206164647265737360601b60448201526064016101de565b506001600160a01b03165f9081526004602052604090205463ffffffff1690565b5f6001600160a01b0382166105865760405162461bcd60e51b8152602060048201526014602482015273496e76616c69642075736572206164647265737360601b60448201526064016101de565b506001600160a01b03165f9081526020819052604090205490565b60606001600160a01b0384166105f05760405162461bcd60e51b8152602060048201526014602482015273496e76616c69642075736572206164647265737360601b60448201526064016101de565b81831061063f5760405162461bcd60e51b815260206004820152600d60248201527f496e76616c69642072616e67650000000000000000000000000000000000000060448201526064016101de565b6001600160a01b0384165f908152602081905260409020548211156106a65760405162461bcd60e51b815260206004820152601760248201527f456e6420696e646578206f7574206f6620626f756e647300000000000000000060448201526064016101de565b5f6106b18484610ee0565b90505f8167ffffffffffffffff8111156106cd576106cd610ef3565b6040519080825280602002602001820160405280156106f6578160200160208202803683370190505b5090505f5b82811015610762576001600160a01b0387165f9081526020819052604090206107248288610f07565b8154811061073457610734610f1a565b905f5260205f20015482828151811061074f5761074f610f1a565b60209081029190910101526001016106fb565b509150505b9392505050565b5f6001600160a01b0382166107bc5760405162461bcd60e51b8152602060048201526014602482015273496e76616c69642075736572206164647265737360601b60448201526064016101de565b506001600160a01b03165f9081526001602052604090205490565b5f6001600160a01b0383166108255760405162461bcd60e51b8152602060048201526014602482015273496e76616c69642075736572206164647265737360601b60448201526064016101de565b6001600160a01b0383165f90815260208190526040902054821061088b5760405162461bcd60e51b815260206004820152601360248201527f496e646578206f7574206f6620626f756e64730000000000000000000000000060448201526064016101de565b6001600160a01b0383165f9081526020819052604090208054839081106108b4576108b4610f1a565b905f5260205f20015490505b92915050565b5f61076783836004610944565b5f6108de8230610a64565b5090565b5f6108ed8383610a64565b5090919050565b5f82610906576109035f610aed565b92505b81610917576109145f610aed565b91505b61076783835f610aff565b5f82610934576109315f610aed565b92505b6107678363ffffffff8416610bdf565b7f9e7b61f58c47dc699ac88507c4f5bb9f121c03808c5676a8078fe583e46497015460405163196d0b9b60e01b81525f917f9e7b61f58c47dc699ac88507c4f5bb9f121c03808c5676a8078fe583e4649700916001600160a01b039091169063196d0b9b906109bd908890339089908990600401610f4e565b6020604051808303815f875af11580156109d9573d5f5f3e3d5ffd5b505050506040513d601f19601f820116820180604052508101906109fd9190610f9f565b8154604051630f8e573b60e21b8152600481018390523360248201529193506001600160a01b031690633e395cec906044015f604051808303815f87803b158015610a46575f5ffd5b505af1158015610a58573d5f5f3e3d5ffd5b50505050509392505050565b5f7f9e7b61f58c47dc699ac88507c4f5bb9f121c03808c5676a8078fe583e46497008054604051635ca4b5b160e11b8152600481018690526001600160a01b03858116602483015292935091169063b9496b62906044015f604051808303815f87803b158015610ad2575f5ffd5b505af1158015610ae4573d5f5f3e3d5ffd5b50505050505050565b5f6108c08263ffffffff166004610cae565b5f5f8215610b125750600160f81b610b15565b505f5b5f7f9e7b61f58c47dc699ac88507c4f5bb9f121c03808c5676a8078fe583e4649700600181015460405163022f65e760e31b815260048101899052602481018890527fff00000000000000000000000000000000000000000000000000000000000000851660448201529192506001600160a01b03169063117b2f38906064016020604051808303815f875af1158015610bb1573d5f5f3e3d5ffd5b505050506040513d601f19601f82011682018060405250810190610bd59190610f9f565b9695505050505050565b5f600160f81b817f9e7b61f58c47dc699ac88507c4f5bb9f121c03808c5676a8078fe583e46497006001810154604051635a53accb60e01b815260048101889052602481018790527fff00000000000000000000000000000000000000000000000000000000000000851660448201529192506001600160a01b031690635a53accb906064016020604051808303815f875af1158015610c81573d5f5f3e3d5ffd5b505050506040513d601f19601f82011682018060405250810190610ca59190610f9f565b95945050505050565b7f9e7b61f58c47dc699ac88507c4f5bb9f121c03808c5676a8078fe583e464970154604051639cd07acb60e01b81525f917f9e7b61f58c47dc699ac88507c4f5bb9f121c03808c5676a8078fe583e4649700916001600160a01b0390911690639cd07acb90610d239087908790600401610fb6565b6020604051808303815f875af1158015610d3f573d5f5f3e3d5ffd5b505050506040513d601f19601f82011682018060405250810190610d639190610f9f565b949350505050565b5f5f5f60408486031215610d7d575f5ffd5b83359250602084013567ffffffffffffffff811115610d9a575f5ffd5b8401601f81018613610daa575f5ffd5b803567ffffffffffffffff811115610dc0575f5ffd5b866020828401011115610dd1575f5ffd5b939660209190910195509293505050565b80356001600160a01b0381168114610df8575f5ffd5b919050565b5f60208284031215610e0d575f5ffd5b61076782610de2565b5f5f5f60608486031215610e28575f5ffd5b610e3184610de2565b95602085013595506040909401359392505050565b602080825282518282018190525f918401906040840190835b81811015610e7d578351835260209384019390920191600101610e5f565b509095945050505050565b5f5f60408385031215610e99575f5ffd5b610ea283610de2565b946020939093013593505050565b634e487b7160e01b5f52601160045260245ffd5b63ffffffff81811683821601908111156108c0576108c0610eb0565b818103818111156108c0576108c0610eb0565b634e487b7160e01b5f52604160045260245ffd5b808201808211156108c0576108c0610eb0565b634e487b7160e01b5f52603260045260245ffd5b60548110610f4a57634e487b7160e01b5f52602160045260245ffd5b9052565b8481526001600160a01b0384166020820152608060408201525f8351806080840152806020860160a085015e5f60a0828501015260a0601f19601f830116840101915050610ca56060830184610f2e565b5f60208284031215610faf575f5ffd5b5051919050565b828152604081016107676020830184610f2e56fea164736f6c634300081b000a",
  "linkReferences": {},
  "deployedLinkReferences": {}
}